{
  "contractName": "EventModuleAdmin",
  "abi": [
    {
      "anonymous": false,
      "inputs": [
        {
          "indexed": false,
          "internalType": "address",
          "name": "owner",
          "type": "address"
        },
        {
          "indexed": false,
          "internalType": "bytes32",
          "name": "uuid",
          "type": "bytes32"
        },
        {
          "indexed": false,
          "internalType": "uint256",
          "name": "timestamp",
          "type": "uint256"
        },
        {
          "indexed": false,
          "internalType": "string",
          "name": "filehash",
          "type": "string"
        }
      ],
      "name": "ChannelCreated",
      "type": "event"
    },
    {
      "anonymous": false,
      "inputs": [
        {
          "indexed": false,
          "internalType": "address",
          "name": "owner",
          "type": "address"
        },
        {
          "indexed": false,
          "internalType": "uint256",
          "name": "timestamp",
          "type": "uint256"
        },
        {
          "indexed": false,
          "internalType": "string",
          "name": "filehash",
          "type": "string"
        }
      ],
      "name": "ChannelDisabled",
      "type": "event"
    },
    {
      "anonymous": false,
      "inputs": [
        {
          "indexed": false,
          "internalType": "address",
          "name": "owner",
          "type": "address"
        },
        {
          "indexed": false,
          "internalType": "uint256",
          "name": "timestamp",
          "type": "uint256"
        },
        {
          "indexed": false,
          "internalType": "string",
          "name": "filehash",
          "type": "string"
        }
      ],
      "name": "ChannelUpdated",
      "type": "event"
    },
    {
      "anonymous": false,
      "inputs": [
        {
          "indexed": false,
          "internalType": "address",
          "name": "owner",
          "type": "address"
        },
        {
          "indexed": false,
          "internalType": "bytes32",
          "name": "uuid",
          "type": "bytes32"
        },
        {
          "indexed": false,
          "internalType": "string",
          "name": "protocol",
          "type": "string"
        },
        {
          "indexed": false,
          "internalType": "address",
          "name": "contractAddress",
          "type": "address"
        },
        {
          "indexed": false,
          "internalType": "uint256",
          "name": "timestamp",
          "type": "uint256"
        },
        {
          "indexed": false,
          "internalType": "string",
          "name": "filehash",
          "type": "string"
        }
      ],
      "name": "EventModuleCreated",
      "type": "event"
    },
    {
      "anonymous": false,
      "inputs": [
        {
          "indexed": false,
          "internalType": "address",
          "name": "owner",
          "type": "address"
        },
        {
          "indexed": false,
          "internalType": "uint256",
          "name": "timestamp",
          "type": "uint256"
        },
        {
          "indexed": false,
          "internalType": "string",
          "name": "filehash",
          "type": "string"
        }
      ],
      "name": "EventModuleDisabled",
      "type": "event"
    },
    {
      "anonymous": false,
      "inputs": [
        {
          "indexed": false,
          "internalType": "address",
          "name": "owner",
          "type": "address"
        },
        {
          "indexed": false,
          "internalType": "uint256",
          "name": "timestamp",
          "type": "uint256"
        },
        {
          "indexed": false,
          "internalType": "string",
          "name": "filehash",
          "type": "string"
        }
      ],
      "name": "EventModuleUpdated",
      "type": "event"
    },
    {
      "anonymous": false,
      "inputs": [
        {
          "indexed": false,
          "internalType": "address",
          "name": "owner",
          "type": "address"
        },
        {
          "indexed": false,
          "internalType": "bytes32",
          "name": "channelUUID",
          "type": "bytes32"
        },
        {
          "indexed": false,
          "internalType": "uint256",
          "name": "timestamp",
          "type": "uint256"
        }
      ],
      "name": "SubscribedToChannel",
      "type": "event"
    },
    {
      "anonymous": false,
      "inputs": [
        {
          "indexed": false,
          "internalType": "address",
          "name": "owner",
          "type": "address"
        },
        {
          "indexed": false,
          "internalType": "bytes32",
          "name": "channelUUID",
          "type": "bytes32"
        },
        {
          "indexed": false,
          "internalType": "uint256",
          "name": "timestamp",
          "type": "uint256"
        }
      ],
      "name": "UnubscribedChannel",
      "type": "event"
    },
    {
      "inputs": [
        {
          "internalType": "bytes32",
          "name": "uuid",
          "type": "bytes32"
        },
        {
          "internalType": "string",
          "name": "protocol",
          "type": "string"
        },
        {
          "internalType": "address",
          "name": "protocolAddress",
          "type": "address"
        },
        {
          "internalType": "string",
          "name": "_newHash",
          "type": "string"
        }
      ],
      "name": "createEventModule",
      "outputs": [],
      "stateMutability": "nonpayable",
      "type": "function"
    },
    {
      "inputs": [],
      "name": "updateEventModule",
      "outputs": [],
      "stateMutability": "nonpayable",
      "type": "function"
    },
    {
      "inputs": [
        {
          "internalType": "bytes32",
          "name": "uuid",
          "type": "bytes32"
        }
      ],
      "name": "getEventModule",
      "outputs": [
        {
          "internalType": "string",
          "name": "",
          "type": "string"
        },
        {
          "internalType": "bytes32[]",
          "name": "",
          "type": "bytes32[]"
        }
      ],
      "stateMutability": "view",
      "type": "function"
    },
    {
      "inputs": [],
      "name": "disableEventModule",
      "outputs": [],
      "stateMutability": "nonpayable",
      "type": "function"
    },
    {
      "inputs": [
        {
          "internalType": "bytes32",
          "name": "uuid",
          "type": "bytes32"
        },
        {
          "internalType": "string",
          "name": "_newHash",
          "type": "string"
        }
      ],
      "name": "createChannel",
      "outputs": [],
      "stateMutability": "nonpayable",
      "type": "function"
    },
    {
      "inputs": [
        {
          "internalType": "bytes32",
          "name": "uuid",
          "type": "bytes32"
        }
      ],
      "name": "getChannel",
      "outputs": [
        {
          "internalType": "string",
          "name": "",
          "type": "string"
        },
        {
          "internalType": "bytes32[]",
          "name": "",
          "type": "bytes32[]"
        }
      ],
      "stateMutability": "view",
      "type": "function"
    },
    {
      "inputs": [],
      "name": "updateChannel",
      "outputs": [],
      "stateMutability": "nonpayable",
      "type": "function"
    },
    {
      "inputs": [],
      "name": "disableChannel",
      "outputs": [],
      "stateMutability": "nonpayable",
      "type": "function"
    },
    {
      "inputs": [
        {
          "internalType": "bytes32",
          "name": "moduleUUID",
          "type": "bytes32"
        },
        {
          "internalType": "bytes32",
          "name": "channelUUID",
          "type": "bytes32"
        }
      ],
      "name": "addChannelToModule",
      "outputs": [],
      "stateMutability": "nonpayable",
      "type": "function"
    },
    {
      "inputs": [
        {
          "internalType": "bytes32",
          "name": "channelUUID",
          "type": "bytes32"
        },
        {
          "internalType": "string",
          "name": "_newHash",
          "type": "string"
        }
      ],
      "name": "subscribedToChannel",
      "outputs": [],
      "stateMutability": "nonpayable",
      "type": "function"
    },
    {
      "inputs": [
        {
          "internalType": "bytes32",
          "name": "channelUUID",
          "type": "bytes32"
        }
      ],
      "name": "unSubscribeChannel",
      "outputs": [],
      "stateMutability": "nonpayable",
      "type": "function"
    }
  ],
  "bytecode": "0x608060405234801561001057600080fd5b50610b09806100206000396000f3fe608060405234801561001057600080fd5b50600436106100a95760003560e01c806386315c4d1161007157806386315c4d1461011357806386fa769914610113578063b76761a31461011b578063bf3dfc0914610113578063c584489a1461012e578063fba6b4bf14610113576100a9565b806304b7ea96146100ae57806347a90045146100c357806356489efd146100ed5780635cb9d85c14610100578063831c2b82146100c3575b600080fd5b6100c16100bc3660046107f0565b610141565b005b6100d66100d13660046107b7565b6101f8565b6040516100e49291906109b8565b60405180910390f35b6100c16100fb3660046107cf565b610200565b6100c161010e3660046107b7565b6102f9565b6100c1610337565b6100c1610129366004610835565b610339565b6100c161013c3660046107f0565b61042c565b6000828152600260205260409020546001600160a01b03163314156101815760405162461bcd60e51b815260040161017890610a33565b60405180910390fd5b600082815260026020908152604090912080546001600160a01b0319163317815582516101b6926001909201918401906104ff565b507f4b1260c53589cad6abb8de585cd4d058e0f16ab5aa93b9b8ee903a43a6013c1b338342846040516101ec9493929190610981565b60405180910390a15050565b606080915091565b6000828152602081905260409020546001600160a01b031633146102365760405162461bcd60e51b815260040161017890610a0e565b6000828152600260205260409020546001600160a01b0316331461026c5760405162461bcd60e51b815260040161017890610a0e565b60008281526020818152604080832084845260028352908320600490910180546001818101835591855292909320815460039093020180546001600160a01b0319166001600160a01b03909316929092178255828101805491938301916102d290610a82565b6102dd929190610583565b50600282810180546102f292840191906105fe565b5050505050565b7f8a7ef7a134d5da499187453f31a6d8ef099aa21ccfddc1c116688280059a6f4033824260405161032c93929190610960565b60405180910390a150565b565b6000848152602081905260409020546001600160a01b03163314156103705760405162461bcd60e51b815260040161017890610a5b565b60008481526020818152604090912080546001600160a01b0319163317815584516103a3926001909201918601906104ff565b506000848152602081815260409091206002810180546001600160a01b0319166001600160a01b03861617905582516103e4926003909201918401906104ff565b507fcabd665fa2ee9e6517302cd045b0cd5135e6043379b9e8ea01152f01236eeb8b33858585428660405161041e9695949392919061090a565b60405180910390a150505050565b6040805160608101825233815260208082018481526001838501819052600087815260028085529581209095018054808301825590865294839020845160039096020180546001600160a01b0319166001600160a01b03909616959095178555905180519394859490936104a49385019201906104ff565b50604091820151600291909101805460ff1916911515919091179055517fad02bed809ab78544e6e01fb8d95d980089d81b9e74700aec342a7c1e16f86ce906104f290339086904290610960565b60405180910390a1505050565b82805461050b90610a82565b90600052602060002090601f01602090048101928261052d5760008555610573565b82601f1061054657805160ff1916838001178555610573565b82800160010185558215610573579182015b82811115610573578251825591602001919060010190610558565b5061057f9291506106a8565b5090565b82805461058f90610a82565b90600052602060002090601f0160209004810192826105b15760008555610573565b82601f106105c25780548555610573565b8280016001018555821561057357600052602060002091601f016020900482015b828111156105735782548255916001019190600101906105e3565b82805482825590600052602060002090600302810192821561069c5760005260206000209160030282015b8281111561069c57825482546001600160a01b0319166001600160a01b0390911617825560018084018054859285929083019161066590610a82565b610670929190610583565b506002918201549101805460ff191660ff90921615159190911790556003928301929190910190610629565b5061057f9291506106bd565b5b8082111561057f57600081556001016106a9565b8082111561057f5780546001600160a01b031916815560006106e260018301826106f7565b5060028101805460ff191690556003016106bd565b50805461070390610a82565b6000825580601f106107155750610733565b601f01602090049060005260206000209081019061073391906106a8565b50565b600082601f830112610746578081fd5b813567ffffffffffffffff8082111561076157610761610abd565b604051601f8301601f19168101602001828111828210171561078557610785610abd565b60405282815284830160200186101561079c578384fd5b82602086016020830137918201602001929092529392505050565b6000602082840312156107c8578081fd5b5035919050565b600080604083850312156107e1578081fd5b50508035926020909101359150565b60008060408385031215610802578182fd5b82359150602083013567ffffffffffffffff81111561081f578182fd5b61082b85828601610736565b9150509250929050565b6000806000806080858703121561084a578182fd5b84359350602085013567ffffffffffffffff80821115610868578384fd5b61087488838901610736565b9450604087013591506001600160a01b0382168214610891578384fd5b909250606086013590808211156108a6578283fd5b506108b387828801610736565b91505092959194509250565b60008151808452815b818110156108e4576020818501810151868301820152016108c8565b818111156108f55782602083870101525b50601f01601f19169290920160200192915050565b600060018060a01b03808916835287602084015260c0604084015261093260c08401886108bf565b818716606085015285608085015283810360a085015261095281866108bf565b9a9950505050505050505050565b6001600160a01b039390931683526020830191909152604082015260600190565b600060018060a01b0386168252846020830152836040830152608060608301526109ae60808301846108bf565b9695505050505050565b6000604082526109cb60408301856108bf565b828103602084810191909152845180835285820192820190845b81811015610a01578451835293830193918301916001016109e5565b5090979650505050505050565b6020808252600b908201526a1b9bdd08185b1b1bddd95960aa1b604082015260600190565b6020808252600e908201526d6368616e6e656c2065786973747360901b604082015260600190565b6020808252600d908201526c6d6f64756c652065786973747360981b604082015260600190565b600281046001821680610a9657607f821691505b60208210811415610ab757634e487b7160e01b600052602260045260246000fd5b50919050565b634e487b7160e01b600052604160045260246000fdfea2646970667358221220872b982e124c394e42cffe89966b9a89f5269f78dfc8d106f336da2bb0fcd74a64736f6c63430008000033",
  "immutableReferences": {},
  "source": "// SPDX-License-Identifier: GPL-3.0-or-later\npragma solidity >=0.6.0 <0.9.0;\n\ncontract EventModuleAdmin {\n\n/* important hash is used to store IPFS payload model can be developed futher */\n    struct EventModule {\n        address owner;\n        string protocol;\n        address protocolContractAddress;\n        string _hash;\n        Channel[] channels;\n    }\n\n    struct Channel {\n        address owner;\n        string _hash;\n        User[] subscriber;\n    }\n\n    struct User {\n        address userAddress;\n        string _hash;\n        bool isSubsribed;\n    }\n\n    mapping(bytes32 => EventModule) private eventModule;\n    mapping(address => User) private users;\n    mapping(bytes32 => Channel) private channels;\n\n    // Modifiers to be added with User Role/Permissions\n\n// Events\n    event EventModuleCreated(address owner, bytes32 uuid, string protocol, address contractAddress, uint256 timestamp, string filehash);\n    event EventModuleUpdated(address owner, uint256 timestamp, string filehash);\n    event EventModuleDisabled(address owner, uint256 timestamp, string filehash);\n    event ChannelCreated(address owner, bytes32 uuid, uint256 timestamp, string filehash);\n    event ChannelUpdated(address owner, uint256 timestamp, string filehash);\n    event ChannelDisabled(address owner, uint256 timestamp, string filehash);\n\n    event SubscribedToChannel(address owner, bytes32 channelUUID, uint256 timestamp);\n    event UnubscribedChannel(address owner, bytes32 channelUUID, uint256 timestamp);\n\n    function createEventModule(bytes32 uuid, string memory protocol, address protocolAddress, string memory _newHash) public {\n       // can be developed further with modifiers (duplicate check)\n        if (eventModule[uuid].owner == msg.sender) {\n            revert(\"module exists\");\n        }\n        eventModule[uuid].owner = msg.sender;\n        eventModule[uuid].protocol = protocol;\n        eventModule[uuid].protocolContractAddress = protocolAddress;\n        eventModule[uuid]._hash = _newHash;\n        emit EventModuleCreated(msg.sender, uuid, protocol, protocolAddress, block.timestamp, _newHash);\n    }\n\n    function updateEventModule() public {\n        // pending\n    }\n\n    function getEventModule(bytes32 uuid) public view returns (string memory, bytes32[] memory) {\n        // pending\n    }\n\n    function disableEventModule() public {\n        // pending\n    }\n\n    function createChannel(bytes32 uuid, string memory _newHash) public {\n       // can be developed further with modifiers (duplicate check)\n        if (channels[uuid].owner == msg.sender) {\n            revert(\"channel exists\");\n        }\n        channels[uuid].owner = msg.sender;\n        channels[uuid]._hash = _newHash;\n        emit ChannelCreated(msg.sender, uuid, block.timestamp, _newHash);\n    }\n\n    function getChannel(bytes32 uuid) public view returns (string memory, bytes32[] memory) {\n        // pending\n    }\n\n    function updateChannel() public{\n        // pending\n    }\n\n    function disableChannel() public {\n       // pending\n    }\n\n    function addChannelToModule(bytes32 moduleUUID, bytes32 channelUUID) public {\n        if(eventModule[moduleUUID].owner != msg.sender) {\n            revert('not allowed');\n        }\n          if(channels[moduleUUID].owner != msg.sender) {\n            revert('not allowed');\n        }\n        eventModule[moduleUUID].channels.push(channels[channelUUID]);\n    }\n\n    function subscribedToChannel(bytes32 channelUUID, string memory _newHash) public{\n       User memory user = User(msg.sender, _newHash, true);\n       channels[channelUUID].subscriber.push(user);\n       emit SubscribedToChannel(msg.sender, channelUUID, block.timestamp);\n    }\n\n     function unSubscribeChannel(bytes32 channelUUID) public{\n         // to be done\n         emit UnubscribedChannel(msg.sender, channelUUID, block.timestamp);\n    }\n\n}\n\n",
  "sourcePath": "/Users/harpreetsingh/Desktop/ENS/EventModule/contracts/EventModuleAdmin.sol",
  "compiler": {
    "name": "solc",
    "version": "0.8.0+commit.c7dfd78e.Emscripten.clang"
  },
  "schemaVersion": "3.4.3",
  "updatedAt": "2022-03-08T10:49:34.098Z",
  "devdoc": {
    "kind": "dev",
    "methods": {},
    "version": 1
  },
  "userdoc": {
    "kind": "user",
    "methods": {},
    "version": 1
  }
}