{
  "contractName": "EventModuleCore",
  "abi": [
    {
      "anonymous": false,
      "inputs": [
        {
          "indexed": false,
          "internalType": "address",
          "name": "owner",
          "type": "address"
        },
        {
          "indexed": false,
          "internalType": "uint256",
          "name": "uuid",
          "type": "uint256"
        },
        {
          "indexed": false,
          "internalType": "uint256",
          "name": "timestamp",
          "type": "uint256"
        },
        {
          "indexed": false,
          "internalType": "string",
          "name": "filehash",
          "type": "string"
        }
      ],
      "name": "ChannelCreated",
      "type": "event"
    },
    {
      "anonymous": false,
      "inputs": [
        {
          "indexed": false,
          "internalType": "address",
          "name": "owner",
          "type": "address"
        },
        {
          "indexed": false,
          "internalType": "uint256",
          "name": "timestamp",
          "type": "uint256"
        },
        {
          "indexed": false,
          "internalType": "string",
          "name": "filehash",
          "type": "string"
        }
      ],
      "name": "ChannelDisabled",
      "type": "event"
    },
    {
      "anonymous": false,
      "inputs": [
        {
          "indexed": false,
          "internalType": "address",
          "name": "owner",
          "type": "address"
        },
        {
          "indexed": false,
          "internalType": "uint256",
          "name": "timestamp",
          "type": "uint256"
        },
        {
          "indexed": false,
          "internalType": "string",
          "name": "filehash",
          "type": "string"
        }
      ],
      "name": "ChannelUpdated",
      "type": "event"
    },
    {
      "anonymous": false,
      "inputs": [
        {
          "indexed": false,
          "internalType": "address",
          "name": "owner",
          "type": "address"
        },
        {
          "indexed": false,
          "internalType": "uint256",
          "name": "channelUUID",
          "type": "uint256"
        },
        {
          "indexed": false,
          "internalType": "uint256",
          "name": "timestamp",
          "type": "uint256"
        }
      ],
      "name": "SubscribedToChannel",
      "type": "event"
    },
    {
      "anonymous": false,
      "inputs": [
        {
          "indexed": false,
          "internalType": "address",
          "name": "owner",
          "type": "address"
        },
        {
          "indexed": false,
          "internalType": "uint256",
          "name": "channelUUID",
          "type": "uint256"
        },
        {
          "indexed": false,
          "internalType": "uint256",
          "name": "timestamp",
          "type": "uint256"
        }
      ],
      "name": "UnubscribedChannel",
      "type": "event"
    },
    {
      "anonymous": false,
      "inputs": [
        {
          "indexed": false,
          "internalType": "address",
          "name": "owner",
          "type": "address"
        },
        {
          "indexed": false,
          "internalType": "string",
          "name": "hash",
          "type": "string"
        },
        {
          "indexed": false,
          "internalType": "uint256",
          "name": "timestamp",
          "type": "uint256"
        }
      ],
      "name": "UserInfoUpdated",
      "type": "event"
    },
    {
      "inputs": [
        {
          "internalType": "uint256",
          "name": "uuid",
          "type": "uint256"
        },
        {
          "internalType": "string",
          "name": "protocol",
          "type": "string"
        },
        {
          "internalType": "address",
          "name": "protocolContractAddress",
          "type": "address"
        },
        {
          "internalType": "string",
          "name": "_newHash",
          "type": "string"
        }
      ],
      "name": "createChannel",
      "outputs": [],
      "stateMutability": "nonpayable",
      "type": "function"
    },
    {
      "inputs": [
        {
          "internalType": "uint256",
          "name": "uuid",
          "type": "uint256"
        }
      ],
      "name": "getChannel",
      "outputs": [
        {
          "internalType": "string",
          "name": "protocol",
          "type": "string"
        },
        {
          "internalType": "address",
          "name": "protocolContractAddress",
          "type": "address"
        },
        {
          "internalType": "string",
          "name": "_newHash",
          "type": "string"
        }
      ],
      "stateMutability": "view",
      "type": "function"
    },
    {
      "inputs": [
        {
          "internalType": "uint256",
          "name": "uuid",
          "type": "uint256"
        },
        {
          "internalType": "string",
          "name": "_newHash",
          "type": "string"
        }
      ],
      "name": "subscribedToChannel",
      "outputs": [],
      "stateMutability": "nonpayable",
      "type": "function"
    },
    {
      "inputs": [
        {
          "internalType": "address",
          "name": "userAddress",
          "type": "address"
        }
      ],
      "name": "getUserInfo",
      "outputs": [
        {
          "internalType": "string",
          "name": "",
          "type": "string"
        }
      ],
      "stateMutability": "view",
      "type": "function"
    },
    {
      "inputs": [
        {
          "internalType": "string",
          "name": "hash",
          "type": "string"
        }
      ],
      "name": "upDateUserInfo",
      "outputs": [],
      "stateMutability": "nonpayable",
      "type": "function"
    },
    {
      "inputs": [
        {
          "internalType": "uint256",
          "name": "uuid",
          "type": "uint256"
        }
      ],
      "name": "unSubscribeChannel",
      "outputs": [],
      "stateMutability": "nonpayable",
      "type": "function"
    },
    {
      "inputs": [
        {
          "internalType": "uint256",
          "name": "channelId",
          "type": "uint256"
        }
      ],
      "name": "getListOfSubscriber",
      "outputs": [
        {
          "internalType": "address[]",
          "name": "",
          "type": "address[]"
        },
        {
          "internalType": "string[]",
          "name": "",
          "type": "string[]"
        },
        {
          "internalType": "bool[]",
          "name": "",
          "type": "bool[]"
        }
      ],
      "stateMutability": "view",
      "type": "function"
    }
  ],
  "bytecode": "0x608060405234801561001057600080fd5b50611058806100206000396000f3fe608060405234801561001057600080fd5b506004361061007d5760003560e01c80638d33fbe11161005b5780638d33fbe1146100e2578063b9478445146100f5578063ee0fd79e14610108578063f91580451461012a5761007d565b806310df54a0146100825780633a4b6e70146100ad5780636386c1c7146100c2575b600080fd5b610095610090366004610c3f565b61013d565b6040516100a493929190610eee565b60405180910390f35b6100c06100bb366004610c3f565b6102cc565b005b6100d56100d0366004610be3565b610412565b6040516100a49190610edb565b6100c06100f0366004610c57565b6104c2565b6100c0610103366004610c9c565b6105c4565b61011b610116366004610c3f565b6106d6565b6040516100a493929190610e2a565b6100c0610138366004610c04565b610a23565b60008181526001602052604081206005015460609190829060ff1661017d5760405162461bcd60e51b815260040161017490610f73565b60405180910390fd5b60008481526001602081905260409091206002810154918101805490926001600160a01b0316916003019083906101b390610faa565b80601f01602080910402602001604051908101604052809291908181526020018280546101df90610faa565b801561022c5780601f106102015761010080835404028352916020019161022c565b820191906000526020600020905b81548152906001019060200180831161020f57829003601f168201915b5050505050925080805461023f90610faa565b80601f016020809104026020016040519081016040528092919081815260200182805461026b90610faa565b80156102b85780601f1061028d576101008083540402835291602001916102b8565b820191906000526020600020905b81548152906001019060200180831161029b57829003601f168201915b505050505090509250925092509193909250565b60008181526001602052604090206005015460ff166102fd5760405162461bcd60e51b815260040161017490610f73565b60005b6000828152600160205260409020600401548110156103d357600082815260016020526040902060040180543391908390811061034d57634e487b7160e01b600052603260045260246000fd5b60009182526020909120600390910201546001600160a01b031614156103c157600082815260016020526040812060040180548390811061039e57634e487b7160e01b600052603260045260246000fd5b60009182526020909120600390910201600201805460ff19169115159190911790555b806103cb81610fe5565b915050610300565b507fc9b1636a60e15e38f69f9b6cfdc651d39fc0239a2efeb1417f252e5c3ae2b64833824260405161040793929190610dd2565b60405180910390a150565b6001600160a01b038116600090815260208190526040902060010180546060919061043c90610faa565b80601f016020809104026020016040519081016040528092919081815260200182805461046890610faa565b80156104b55780601f1061048a576101008083540402835291602001916104b5565b820191906000526020600020905b81548152906001019060200180831161049857829003601f168201915b505050505090505b919050565b60008281526001602052604090206005015460ff166104f35760405162461bcd60e51b815260040161017490610f73565b604080516060810182523381526020808201848152600183850181905260008781528184529485206004018054808301825590865294839020845160039096020180546001600160a01b0319166001600160a01b0390961695909517855590518051939485949093610569938501920190610ab2565b50604091820151600291909101805460ff1916911515919091179055517f558c2ef5ef39fd9841d4c23719facbfaa7645a0378e731fca47458afcd95d7b8906105b790339086904290610dd2565b60405180910390a1505050565b6000848152600160205260409020546001600160a01b03163314156105fb5760405162461bcd60e51b815260040161017490610f22565b600084815260016020818152604090922080546001600160a01b03191633178155855161063093919092019190860190610ab2565b5060008481526001602090815260409091206002810180546001600160a01b0319166001600160a01b038616179055825161067392600390920191840190610ab2565b50600084815260016020819052604091829020600501805460ff19169091179055517f90516e1c517ffd233596948f0ea1f619ef01ad6dbeccdf7f33d388b2ef3287df906106c8903390879042908690610df3565b60405180910390a150505050565b600081815260016020526040812060040154606091829182918167ffffffffffffffff81111561071657634e487b7160e01b600052604160045260246000fd5b60405190808252806020026020018201604052801561073f578160200160208202803683370190505b50905060008267ffffffffffffffff81111561076b57634e487b7160e01b600052604160045260246000fd5b60405190808252806020026020018201604052801561079e57816020015b60608152602001906001900390816107895790505b50905060008367ffffffffffffffff8111156107ca57634e487b7160e01b600052604160045260246000fd5b6040519080825280602002602001820160405280156107f3578160200160208202803683370190505b50905060005b84811015610a1457600089815260016020526040902060040180548290811061083257634e487b7160e01b600052603260045260246000fd5b600091825260209091206003909102015484516001600160a01b039091169085908390811061087157634e487b7160e01b600052603260045260246000fd5b6001600160a01b0390921660209283029190910182015260008a81526001909152604090206004018054829081106108b957634e487b7160e01b600052603260045260246000fd5b906000526020600020906003020160010180546108d590610faa565b80601f016020809104026020016040519081016040528092919081815260200182805461090190610faa565b801561094e5780601f106109235761010080835404028352916020019161094e565b820191906000526020600020905b81548152906001019060200180831161093157829003601f168201915b505050505083828151811061097357634e487b7160e01b600052603260045260246000fd5b6020026020010181905250600160008a815260200190815260200160002060040181815481106109b357634e487b7160e01b600052603260045260246000fd5b906000526020600020906003020160020160009054906101000a900460ff168282815181106109f257634e487b7160e01b600052603260045260246000fd5b9115156020928302919091019091015280610a0c81610fe5565b9150506107f9565b50919790965090945092505050565b336000818152602081905260409020546001600160a01b03161415610a5a5760405162461bcd60e51b815260040161017490610f4a565b336000908152602081815260409091208251610a7e92600190920191840190610ab2565b507fb21cbedc105554b72bf42e9aa00c03a4045ccb7bac4606a8ea62106a742ab97e33824260405161040793929190610d9e565b828054610abe90610faa565b90600052602060002090601f016020900481019282610ae05760008555610b26565b82601f10610af957805160ff1916838001178555610b26565b82800160010185558215610b26579182015b82811115610b26578251825591602001919060010190610b0b565b50610b32929150610b36565b5090565b5b80821115610b325760008155600101610b37565b80356001600160a01b03811681146104bd57600080fd5b600082601f830112610b72578081fd5b813567ffffffffffffffff80821115610b8d57610b8d61100c565b604051601f8301601f191681016020018281118282101715610bb157610bb161100c565b604052828152848301602001861015610bc8578384fd5b82602086016020830137918201602001929092529392505050565b600060208284031215610bf4578081fd5b610bfd82610b4b565b9392505050565b600060208284031215610c15578081fd5b813567ffffffffffffffff811115610c2b578182fd5b610c3784828501610b62565b949350505050565b600060208284031215610c50578081fd5b5035919050565b60008060408385031215610c69578081fd5b82359150602083013567ffffffffffffffff811115610c86578182fd5b610c9285828601610b62565b9150509250929050565b60008060008060808587031215610cb1578182fd5b84359350602085013567ffffffffffffffff80821115610ccf578384fd5b610cdb88838901610b62565b9450610ce960408801610b4b565b93506060870135915080821115610cfe578283fd5b50610d0b87828801610b62565b91505092959194509250565b6000815180845260208085019450808401835b83811015610d48578151151587529582019590820190600101610d2a565b509495945050505050565b60008151808452815b81811015610d7857602081850181015186830182015201610d5c565b81811115610d895782602083870101525b50601f01601f19169290920160200192915050565b6001600160a01b0384168152606060208201819052600090610dc290830185610d53565b9050826040830152949350505050565b6001600160a01b039390931683526020830191909152604082015260600190565b600060018060a01b038616825284602083015283604083015260806060830152610e206080830184610d53565b9695505050505050565b606080825284519082018190526000906020906080840190828801845b82811015610e6c5781516001600160a01b031684529284019290840190600101610e47565b5050508381038285015285518082528282019080840283018401888501865b83811015610eb957601f19868403018552610ea7838351610d53565b94870194925090860190600101610e8b565b50508681036040880152610ecd8189610d17565b9a9950505050505050505050565b600060208252610bfd6020830184610d53565b600060608252610f016060830186610d53565b6001600160a01b03851660208401528281036040840152610e208185610d53565b6020808252600e908201526d6368616e6e656c2065786973747360901b604082015260600190565b6020808252600f908201526e1a5b9d985b1a59081858d8dbdd5b9d608a1b604082015260600190565b60208082526017908201527f4368616e6e656c20646f6573206e6f742065786973742e000000000000000000604082015260600190565b600281046001821680610fbe57607f821691505b60208210811415610fdf57634e487b7160e01b600052602260045260246000fd5b50919050565b600060001982141561100557634e487b7160e01b81526011600452602481fd5b5060010190565b634e487b7160e01b600052604160045260246000fdfea2646970667358221220986ef3db07e84abbec6c1b66b36c51c45e9f06b513185646736ee065ab82705864736f6c63430008000033",
  "immutableReferences": {},
  "source": "// SPDX-License-Identifier: MIT\npragma solidity >=0.6.0 <0.9.0;\n\ncontract EventModuleCore {\n\n    struct Channel {\n        address owner;\n        string protocol;\n        address protocolContractAddress;\n        string _hash;\n        User[] subscriber;\n        bool exists;\n    }\n\n    struct User {\n        address userAddress;\n        string _hash;\n        bool isSubsribed;\n    }\n\n    mapping(address => User) private users;\n    mapping(uint256 => Channel) private channels;\n\n    // Modifiers to be added with User Role/Permissions\n\n// Events\n    event ChannelCreated(address owner, uint256 uuid, uint256 timestamp, string filehash);\n    event ChannelUpdated(address owner, uint256 timestamp, string filehash);\n    event ChannelDisabled(address owner, uint256 timestamp, string filehash);\n\n    event SubscribedToChannel(address owner, uint256 channelUUID, uint256 timestamp);\n    event UnubscribedChannel(address owner, uint256 channelUUID, uint256 timestamp);\n\n    event UserInfoUpdated(address owner, string hash, uint256 timestamp);\n\n    function createChannel(uint256 uuid, string memory protocol, address protocolContractAddress, string memory _newHash) public {\n       // can be developed further with modifiers (duplicate check) (// modifier access copntrat)\n        if (channels[uuid].owner == msg.sender) {\n            revert(\"channel exists\");\n        }\n        channels[uuid].owner = msg.sender;\n        channels[uuid].protocol = protocol;\n        channels[uuid].protocolContractAddress = protocolContractAddress;\n        channels[uuid]._hash = _newHash;\n        channels[uuid].exists = true;\n        emit ChannelCreated(msg.sender, uuid, block.timestamp, _newHash);\n    }\n\n    function getChannel(uint256 uuid) public view returns (string memory protocol, address protocolContractAddress, string memory _newHash) {\n        require(channels[uuid].exists, \"Channel does not exist.\");\n        return (channels[uuid].protocol, channels[uuid].protocolContractAddress, channels[uuid]._hash);\n    }\n\n    function subscribedToChannel(uint256 uuid, string memory _newHash) public{\n        require(channels[uuid].exists, \"Channel does not exist.\");\n       User memory user = User(msg.sender, _newHash, true);\n       channels[uuid].subscriber.push(user);\n       emit SubscribedToChannel(msg.sender, uuid, block.timestamp);\n    }\n\n     function getUserInfo(address userAddress) public view returns (string memory) {\n         return users[userAddress]._hash;\n     }\n\n     function upDateUserInfo(string memory hash) public {\n        if (users[msg.sender].userAddress == msg.sender) {\n            revert(\"invalid account\");\n        }\n         users[msg.sender]._hash = hash;\n        emit UserInfoUpdated(msg.sender, hash, block.timestamp);\n\n     }\n\n     function unSubscribeChannel(uint256 uuid) public{\n           require(channels[uuid].exists, \"Channel does not exist.\");\n          for (uint256 i = 0; i < channels[uuid].subscriber.length; i++) {\n             if(channels[uuid].subscriber[i].userAddress == msg.sender) {\n                 channels[uuid].subscriber[i].isSubsribed = false;\n             }\n        }\n         // to be done\n         emit UnubscribedChannel(msg.sender, uuid, block.timestamp);\n    }\n\n    function getListOfSubscriber(uint256 channelId) public view returns (address[] memory, string[] memory, bool[] memory) {\n         uint length = channels[channelId].subscriber.length;\n          address[] memory addrs = new address[](length);\n          string[] memory hash = new string[](length);\n          bool[] memory isSubsribed = new bool[](length);\n\n        for (uint i = 0; i < length; i++) {\n            addrs[i] = channels[channelId].subscriber[i].userAddress;\n            hash[i] = channels[channelId].subscriber[i]._hash;\n            isSubsribed[i] = channels[channelId].subscriber[i].isSubsribed;\n        }\n        return (addrs, hash, isSubsribed);\n    }\n\n}\n",
  "sourcePath": "/Users/harpreetsingh/Desktop/ENS/EventModule/contracts/EventModuleCore.sol",
  "compiler": {
    "name": "solc",
    "version": "0.8.0+commit.c7dfd78e.Emscripten.clang"
  },
  "schemaVersion": "3.4.3",
  "updatedAt": "2022-04-13T21:26:12.376Z",
  "devdoc": {
    "kind": "dev",
    "methods": {},
    "version": 1
  },
  "userdoc": {
    "kind": "user",
    "methods": {},
    "version": 1
  }
}